:1000000045C0000060C000005EC000005CC0000091
:100010005AC0000058C0000056C0000054C0000084
:1000200052C0000050C000004EC000004CC0000094
:100030004AC000006DC0000046C0000044C000007F
:1000400042C0000040C000003EC000003CC00000B4
:100050003AC0000038C0000036C0000034C00000C4
:1000600032C0000030C000002EC000002CC00000D4
:100070002AC0000028C0000026C0000024C00000E4
:1000800022C0000020C000001EC0000011241FBEBE
:10009000CFEFD0E4DEBFCDBF11E0A0E0B1E0E0EDF6
:1000A000F2E000E00BBF02C007900D92A430B10750
:1000B000D9F721E0A4E0B1E001C01D92AE30B20753
:1000C000E1F7B8D003C19CCF8BE0809381008DE72E
:1000D00090E0909389008093880082E080936F0085
:1000E000109285001092840080910001909101018E
:1000F000A0910201B0910301809304019093050146
:10010000A0930601B09307018FB780688FBF089551
:100110001F920F920FB60F9211248F939F93AF935C
:10012000BF938091040190910501A0910601B091C7
:1001300007010197A109B10980930401909305017A
:10014000A0930601B0930701892B8A2B8B2B99F47E
:1001500081E0809308018091000190910101A091BC
:100160000201B09103018093040190930501A093D3
:100170000601B0930701BF91AF919F918F910F90AE
:100180000FBE0F901F9018956093000170930101AE
:100190008093020190930301609304017093050121
:1001A0008093060190930701089580910D0181309D
:1001B00041F018F0823061F00FC081E080930D01B2
:1001C00010C082E080930D0188E080930A010895B9
:1001D00081E080930D0105C010920D0110920A017B
:1001E000089510920A01089580910C01813051F018
:1001F00028F0823069F0833091F015C081E080935F
:100200000C0114C082E080930C01809309010895D1
:1002100083E080930C0184E080930901089581E0DC
:1002200080930C0103C081E080930C0181E08093F6
:10023000090108958FEF84B915B864E670E080E095
:1002400090E0A2DF41DF10920D0110920C010F2E01
:10025000FCE28F2E99249394A12CB12CF02D0F2E1B
:10026000F8EECF2EF3E0DF2EE12CF12CF02D88EE0E
:10027000C81683E0D806E104F10420F096DFC12C13
:10028000D12C76018CE2881681E09806A104B10495
:1002900020F0AADF812C912C540190910A018091C9
:1002A0000901890F80930B0185B98091080188238A
:1002B000E1F31092080184E6C80ED11CE11CF11C88
:1002C00084E6880E911CA11CB11CD1CFF894FFCFFD
:0402D0000100000029
:00000001FF
