S01B00006C65645F76335F73686966747265672B6C65642E73726563B1
S113000045C0000060C000005EC000005CC000008D
S11300105AC0000058C0000056C0000054C0000080
S113002052C0000050C000004EC000004CC0000090
S11300304AC000007EC0000046C0000044C000006A
S113004042C0000040C000003EC000003CC00000B0
S11300503AC0000038C0000036C0000034C00000C0
S113006032C0000030C000002EC000002CC00000D0
S11300702AC0000028C0000026C0000024C00000E0
S113008022C0000020C000001EC0000011241FBEBA
S1130090CFEFD0E4DEBFCDBF11E0A0E0B1E0E2E6F7
S11300A0F2E000E00BBF02C007900D92A630B1074A
S11300B0D9F721E0A6E0B1E001C01D92AC30B2074F
S11300C0E1F7B8D0CCC09CCF6093020170930301D8
S11300D080930401909305016093070170930801D4
S11300E08093090190930A0108958BE08093810025
S11300F08DE790E0909389008093880082E080935C
S11301006F001092850010928400809102019091FA
S11301100301A0910401B09105018093070190931C
S11301200801A0930901B0930A018FB780688FBFBB
S113013008951F920F920FB60F9211248F939F93DD
S1130140AF93BF938091070190910801A091090199
S1130150B0910A010197A109B10980930701909315
S11301600801A0930901B0930A01892B8A2B8B2BD8
S113017099F481E080930B01809102019091030135
S1130180A0910401B09105018093070190930801A7
S1130190A0930901B0930A01BF91AF919F918F91F0
S11301A00F900FBE0F901F901895439A419810928C
S11301B0060141E050E042989A010090060102C015
S11301C0220F331F0A94E2F7282311F0409A01C04A
S11301D04098429A909106019F5F9093060198304F
S11301E050F3419A0895909101019F3E59F48091F2
S11301F00001813099F480E8809300018EEF8093B0
S113020001010FC080910001813041F480E88093A6
S11302100001990F91609093010103C0869580932A
S1130220000180910001C1DF809101018BB980E060
S113023090E008958FEF87B918B88AB91BB864E6BF
S113024070E080E090E040DF50DF80910B01882374
S1130250E1F310920B0180E090E0C5DFF6CFF89453
S1050260FFCFCA
S109026280FE0100000013
S9030000FC
