:1000000045C0000060C000005EC000005CC0000091
:100010005AC0000058C0000056C0000054C0000084
:1000200052C0000050C000004EC000004CC0000094
:100030004AC000007EC0000046C0000044C000006E
:1000400042C0000040C000003EC000003CC00000B4
:100050003AC0000038C0000036C0000034C00000C4
:1000600032C0000030C000002EC000002CC00000D4
:100070002AC0000028C0000026C0000024C00000E4
:1000800022C0000020C000001EC0000011241FBEBE
:10009000CFEFD0E4DEBFCDBF11E0A0E0B1E0E8EFEC
:1000A000F2E000E00BBF02C007900D92A630B1074E
:1000B000D9F721E0A6E0B1E001C01D92A031B2075E
:1000C000E1F702D117C19CCF609302017093030145
:1000D000809304019093050160930A0170930B01D2
:1000E00080930C0190930D0108958BE08093810023
:1000F0008DE790E0909389008093880082E0809360
:100100006F001092850010928400809102019091FE
:100110000301A0910401B091050180930A0190931D
:100120000B01A0930C01B0930D018FB780688FBFB6
:1001300008951F920F920FB60F9211248F939F93E1
:10014000AF93BF9380910A0190910B01A0910C0194
:10015000B0910D010197A109B10980930A01909313
:100160000B01A0930C01B0930D01892B8A2B8B2BD3
:1001700099F481E080930E01809102019091030136
:10018000A0910401B091050180930A0190930B01A5
:10019000A0930C01B0930D01BF91AF919F918F91EE
:1001A0000F900FBE0F901F901895EAE7F0E0808146
:1001B000806E80830895883060F0ECE7F0E0808105
:1001C00080838FE000008150E9F78FE08093060183
:1001D000089580937C00F5CFEAE7F0E080818064A9
:1001E0008083808184FFFDCF0895439A41981092C7
:1001F000090141E050E042989A010090090102C0D3
:10020000220F331F0A94E2F7282311F0409A01C00D
:100210004098429A909109019F5F9093090198300C
:1002200050F3419A089581E0C6DFD6DF209178002F
:1002300030917900309308012093070180910F01DC
:10024000813099F018F08230B1F01BC02E3581E07A
:10025000380720F481E080930F0118C02D3B324015
:1002600060F182E080930F011DC02E35314070F0A7
:1002700010920F0122C02D3B3240A0F410920F01CA
:100280001CC0813019F0823069F017C080910101E3
:10029000803821F481E0809301010FC0880F8093A2
:1002A00001010BC080910101813021F480E880932D
:1002B000010103C0869580930101809100018BB9F3
:1002C0008091010192CF089511B88FEF82B987B95B
:1002D00018B88AB91BB869DF64E670E080E090E086
:1002E000F3DE03DF80910E018823E1F310920E010B
:0802F0009ADFF8CFF894FFCF6C
:0602F8001E800100000061
:00000001FF
