:1000000045C0000060C000005EC000005CC0000091
:100010005AC0000058C0000056C0000054C0000084
:1000200052C0000050C000004EC000004CC0000094
:100030004AC0000049C0000046C0000044C00000A3
:1000400042C0000040C000003EC000003CC00000B4
:100050003AC0000038C0000036C0000034C00000C4
:1000600032C0000030C000002EC000002CC00000D4
:100070002AC0000028C0000026C0000024C00000E4
:1000800022C0000020C000001EC0000011241FBEBE
:10009000CFEFD0E4DEBFCDBF11E0A0E0B1E0E8E7F4
:1000A000F2E000E00BBF02C007900D92A630B1074E
:1000B000D9F721E0A6E0B1E001C01D92A231B2075C
:1000C000E1F7C8D0D7C09CCF1F920F920FB60F9206
:1000D00011248F939F93AF93BF9380910C019091C4
:1000E0000D01A0910E01B0910F010197A109B10975
:1000F00080930C0190930D01A0930E01B0930F011A
:10010000892B8A2B8B2B99F481E0809310018091AD
:10011000020190910301A0910401B0910501809327
:100120000C0190930D01A0930E01B0930F01BF91AC
:10013000AF919F918F910F900FBE0F901F901895C8
:10014000EAE7F0E08081806E80830895883060F077
:10015000ECE7F0E0808180838FE000008150E9F7D8
:100160008FE080930601089580937C00F5CF439A39
:10017000419810920B0141E050E042989A010090A2
:100180000B0102C0220F331F0A94E2F7282311F05B
:10019000409A01C04098429A90910B019F5F9093C2
:1001A0000B01983050F3419A0895809111018823F2
:1001B00019F0813029F146C080E0C8DF80917800D5
:1001C0009091790090930A01809309018E3521E086
:1001D000920740F480910101813071F086958093FF
:1001E00001010AC08D3B924038F0809101018038B6
:1001F00019F0880F8093010181E08093110122C0E2
:1002000082E0A4DF809178009091790090930801BA
:10021000809307018E3521E0920740F48091000120
:10022000803171F0880F809300010AC08D3B9240AD
:1002300038F080910001813019F08695809300019B
:1002400010921101809101018BB98091000180957C
:100250008ECF089511B88FEF82B987B918B88AB9CF
:100260001BB86EDF809110018823E1F3109210011A
:080270009CDFF8CFF894FFCFEA
:06027800FE800100000001
:00000001FF
