:1000000067C000007AC0000078C0000076C0000021
:1000100074C0000072C0000070C000006EC000001C
:100020006CC000006AC0000068C0000066C000002C
:1000300064C0000062C0000060C000005EC000003C
:100040005CC000005AC0000058C0000056C000004C
:1000500054C0000052C0000050C000004EC000005C
:100060004CC000004AC0000048C0000046C000006C
:1000700044C0000042C0000040C000003EC000007C
:100080003CC000003AC0000038C0000087013201C7
:10009000320132013201320132017D01320132017D
:1000A00032013201320182013C01410146014B0122
:1000B000500155015A015F016401320132013201E0
:1000C000320132013201320169016E01730178019E
:1000D00011241FBECFEFD0E4DEBFCDBF11E0A0E002
:1000E000B1E0EEE2F3E000E00BBF02C007900D923A
:1000F000AC32B107D9F7A8D018C182CF8FEE85B93D
:100100000000189B29C0199B29C01A9B29C01B9B62
:1001100029C08FED85B90000189B26C0199B26C009
:100120001A9B26C01B9B26C08FEB85B90000189B2D
:1001300023C0199B23C01A9B23C01B9B23C08FE79E
:1001400085B90000189B20C0199B20C01A9B20C0B5
:100150001B9B20C080E0089581E3089584E3089507
:1001600087E308958AE2089582E3089585E3089578
:1001700088E3089580E3089583E3089586E308956E
:1001800089E3089583E2089581E4089582E408955F
:1001900083E4089584E40895181619065CF0089520
:1001A000000021503109E1F74F5F5F4F8417950739
:1001B00019F4089540E050E027E033E0F1CF5E9875
:1001C00088B95F9A00005F9882E090E0E5CF0895DB
:1001D00081E0F5CF0895813118F48158F0CF08956A
:1001E0008155EDCF089584E690E0D6DF88E3E7DF20
:1001F00086E0E5DF8FE0E3DF81E0E1DF8AE090E0A9
:10020000CBCF08955E9A88B95F9A00005F9881E02D
:1002100090E0C2CF08950F931F93CF93DF93182FD1
:10022000EB01D6DF8881882351F001E0010F812F97
:10023000D2DF8991E7DF102F88818111F6CFDF911E
:10024000CF911F910F91089580EF84B98FE085B908
:100250008FEF87B918B88AB91BB8C5DF60E071E0C5
:1002600081E0D9DF4BDF90E0FC01B397E232F1058A
:10027000C8F7EA5BFF4F50C06CE071E081E0CBDF74
:10028000F1CF6EE071E081E0C6DFECCF60E171E0BC
:1002900081E0C1DFE7CF62E171E081E0BCDFE2CF66
:1002A00064E171E081E0B7DFDDCF66E171E081E01C
:1002B000B2DFD8CF68E171E081E0ADDFD3CF6AE192
:1002C00071E081E0A8DFCECF6CE171E081E0A3DFD7
:1002D000C9CF6EE171E081E09EDFC4CF60E271E0E2
:1002E00081E099DFBFCF62E271E081E094DFBACFB5
:1002F00064E271E081E08FDFB5CF66E271E081E01A
:100300008ADFB0CF68E271E081E085DFABCF6AE2DF
:1003100071E081E080DFA6CFEE0FFF1F0024001CFC
:0E0320000BBE0790F691E02D0994F894FFCFE4
:10032E0048656C6C6F20576F726C64003100320040
:10033E0033003400350036003700380039004100F4
:0C034E004200430044002A00300023005D
:00000001FF
