S0240000727965653030325F737169616E3030335F6C616231315F70617274342E7372656371
S113000045C0000060C000005EC000005CC000008D
S11300105AC0000058C0000056C0000054C0000080
S113002052C0000050C000004EC000004CC0000090
S11300304AC0000024C1000046C0000044C00000C3
S113004042C0000040C000003EC000003CC00000B0
S11300503AC0000038C0000036C0000034C00000C0
S113006032C0000030C000002EC000002CC00000D0
S11300702AC0000028C0000026C0000024C00000E0
S113008022C0000020C000001EC0000011241FBEBA
S1130090CFEFD0E4DEBFCDBF11E0A0E0B1E0E6E8F1
S11300A0F3E000E00BBF02C007900D92A431B1074A
S11300B0D9F721E0A4E1B1E001C01D92AC31B2074F
S11300C0E1F73DD15EC19CCF8FEE85B90000189B4E
S11300D029C0199B29C01A9B29C01B9B29C08FEDDD
S11300E085B90000189B26C0199B26C01A9B26C000
S11300F01B9B26C08FEB85B90000189B23C0199B5E
S113010023C01A9B23C01B9B23C08FE785B9000023
S1130110189B20C0199B20C01A9B20C01B9B20C089
S113012080E0089581E3089584E3089587E30895C2
S11301308AE2089582E3089585E3089588E30895A3
S113014080E3089583E3089586E3089589E3089599
S113015083E2089581E4089582E4089583E4089590
S113016084E40895181619065CF0089500002150DF
S11301703109E1F74F5F5F4F8417950719F408952C
S113018040E050E027E033E0F1CF5E9888B95F9A11
S113019000005F9882E090E0E5CF089581E0F5CF1C
S11301A00895813118F48158F0CF08958155EDCF29
S11301B0089584E690E0D6DF88E3E7DF86E0E5DFB4
S11301C08FE0E3DF81E0E1DF8AE090E0CBCF0895C8
S11301D05E9A88B95F9A00005F9881E090E0C2CF90
S11301E008950F931F93CF93DF93182FEB01D6DF5E
S11301F08881882351F001E0010F812FD2DF89919A
S1130200E7DF102F88818111F6CFDF91CF911F9105
S11302100F9108956093000170930101809302018E
S11302209093030160931401709315018093160158
S11302309093170108958BE0809381008DE790E0FF
S1130240909389008093880082E080936F001092DD
S11302508500109284008091000190910101A09189
S11302600201B09103018093140190931501A093AE
S11302701601B09317018FB780688FBF08951F923E
S11302800F920FB60F9211248F939F93AF93BF9346
S11302908091140190911501A0911601B09117015C
S11302A00197A109B1098093140190931501A093BA
S11302B01601B0931701892B8A2B8B2B99F481E0BB
S11302C0809318018091000190910101A091020195
S11302D0B09103018093140190931501A09316012A
S11302E0B0931701BF91AF919F918F910F900FBE63
S11302F00F901F90189580911A01882319F081306E
S113030029F0089581E080931A010895DDDE809339
S11303101901882381F05CDF80911B01813119F47C
S113032081E080931B0180911B013BDF80911B01C5
S11303308F5F80931B0181E080931A01089580EF01
S113034084B98FE085B98FEF87B918B88AB91BB81B
S113035072DF64EF71E080E090E05CDF2ADF64E04C
S113036071E081E03EDF10921A0181E080931B016D
S113037018DF809118018823E1F310921801BBDF84
S1090380F8CFF894FFCF52
S1130386010000004B696C6C204D6520506C656162
S10703967365000087
S9030000FC
