S02500006C65645F76395F7570646F776E6C6566747269676874706C7A776F726B2E73726563DE
S113000045C0000060C000005EC000005CC000008D
S11300105AC0000058C0000056C0000054C0000080
S113002052C0000050C000004EC000004CC0000090
S11300304AC000007EC0000046C0000044C000006A
S113004042C0000040C000003EC000003CC00000B0
S11300503AC0000038C0000036C0000034C00000C0
S113006032C0000030C000002EC000002CC00000D0
S11300702AC0000028C0000026C0000024C00000E0
S113008022C0000020C000001EC0000011241FBEBA
S1130090CFEFD0E4DEBFCDBF11E0A0E0B1E0E2EFEE
S11300A0F2E000E00BBF02C007900D92A430B1074C
S11300B0D9F721E0A4E0B1E001C01D92AF30B2074E
S11300C0E1F7FDD014C19CCF60930001709301014E
S11300D080930201909303016093090170930A01D4
S11300E080930B0190930C0108958BE08093810021
S11300F08DE790E0909389008093880082E080935C
S11301006F001092850010928400809100019091FC
S11301100101A0910201B091030180930901909320
S11301200A01A0930B01B0930C018FB780688FBFB5
S113013008951F920F920FB60F9211248F939F93DD
S1130140AF93BF938091090190910A01A0910B0193
S1130150B0910C010197A109B10980930901909311
S11301600A01A0930B01B0930C01892B8A2B8B2BD2
S113017099F481E080930D01809100019091010137
S1130180A0910201B09103018093090190930A01A7
S1130190A0930B01B0930C01BF91AF919F918F91EC
S11301A00F900FBE0F901F901895EAE7F0E0808142
S11301B0806E80830895883060F0ECE7F0E0808101
S11301C080838FE000008150E9F78FE08093040181
S11301D0089580937C00F5CFCF93DF9380910E0137
S11301E081116AC0E8DFC8E7D0E0888199819093E3
S11301F008018093070181E0DEDF28813981309393
S11302000601209305018091070190910801AC013A
S1130210455F51404336510558F4A901455F5140AB
S11302204336510528F48FEF85B910920E0144C06E
S11302308E3541E0940770F4A901525047306FEFB6
S11302405607D4F04A3F5105BCF482E085B91092B8
S11302500E0132C0833543E0940770F0A901525077
S113026047306FEF560744F04A3F51052CF484E0C1
S113027085B910920E0120C0233543E0340768F09D
S1130280925087306FEF9607BCF08A3F9105A4F433
S113029081E085B910920E010FC02E35314060F413
S11302A0925087306FEF96073CF08A3F910524F413
S11302B088E085B910920E01DF91CF91089511B8AD
S11302C08FEF82B984B915B887B918B88AB91BB841
S11302D06CDF64E670E080E090E0F6DE06DF80919B
S11302E00D018823E1F310920D0176DFF8CFF89425
S10502F0FFCF3A
S10702F20100000003
S9030000FC
