S01900006C65645F76325F73616D706C65636F64652E7372656353
S113000045C0000060C000005EC000005CC000008D
S11300105AC0000058C0000056C0000054C0000080
S113002052C0000050C000004EC000004CC0000090
S11300304AC000007EC0000046C0000044C000006A
S113004042C0000040C000003EC000003CC00000B0
S11300503AC0000038C0000036C0000034C00000C0
S113006032C0000030C000002EC000002CC00000D0
S11300702AC0000028C0000026C0000024C00000E0
S113008022C0000020C000001EC0000011241FBEBA
S1130090CFEFD0E4DEBFCDBF11E0A0E0B1E0E6E2F7
S11300A0F2E000E00BBF02C007900D92A630B1074A
S11300B0D9F721E0A6E0B1E001C01D92AB30B20750
S11300C0E1F79AD0AEC09CCF609302017093030114
S11300D080930401909305016093060170930701D6
S11300E0809308019093090108958BE08093810027
S11300F08DE790E0909389008093880082E080935C
S11301006F001092850010928400809102019091FA
S11301100301A0910401B09105018093060190931D
S11301200701A0930801B09309018FB780688FBFBE
S113013008951F920F920FB60F9211248F939F93DD
S1130140AF93BF938091060190910701A09108019C
S1130150B09109010197A109B10980930601909317
S11301600701A0930801B0930901892B8A2B8B2BDB
S113017099F481E080930A01809102019091030136
S1130180A0910401B09105018093060190930701A9
S1130190A0930801B0930901BF91AF919F918F91F2
S11301A00F900FBE0F901F901895909101019F3EE4
S11301B059F480910001813099F480E88093000122
S11301C08EEF809301010FC080910001813041F4D2
S11301D080E880930001990F91609093010103C01E
S11301E08695809300018091000188B98091010176
S11301F08BB980E090E008958FEF87B918B88AB979
S11302001BB873DF64E670E080E090E05DDF80910E
S11302100A018823E1F310920A0180E090E0C5DF2F
S1090220F6CFF894FFCFB5
S109022680FE010000004F
S9030000FC
