:1000000045C0000060C000005EC000005CC0000091
:100010005AC0000058C0000056C0000054C0000084
:1000200052C0000050C000004EC000004CC0000094
:100030004AC00000B2C0000046C0000044C000003A
:1000400042C0000040C000003EC000003CC00000B4
:100050003AC0000038C0000036C0000034C00000C4
:1000600032C0000030C000002EC000002CC00000D4
:100070002AC0000028C0000026C0000024C00000E4
:1000800022C0000020C000001EC0000011241FBEBE
:10009000CFEFD0E4DEBFCDBF11E0A0E0B1E0EEE1F4
:1000A000F7E000E00BBF02C007900D92A630B10749
:1000B000D9F721E0A6E0B1E001C01D92A23FB2074E
:1000C000E1F7A2D22AC39CCFCF92DF92EF92FF92A8
:1000D0001F93CF93DF9310921D01809125018823F8
:1000E00009F453C080E01BE0C0912A01D0912B019C
:1000F000189FC00DD11D11244D815E816F817885BF
:1001000089819A81AB81BC81481759076A077B07AF
:10011000B0F08881E985FA85082E000C990B0995C5
:10012000888380911D01E0912A01F0912B01189F95
:10013000E00DF11D11241582168217821086809120
:100140001D01E0912A01F0912B01189FE00DF11D96
:100150001124C580D680E780F0844091020150913F
:10016000030160910401709105014C0D5D1D6E1D30
:100170007F1D45835683678370878F5F80931D0142
:1001800090912501891708F4AFCFDF91CF911F918E
:10019000FF90EF90DF90CF9008951F920F920FB6CF
:1001A0000F9211240BB60F922F933F934F935F93AF
:1001B0006F937F938F939F93AF93BF93EF93FF932F
:1001C0008091260190912701A0912801B0912901E9
:1001D0000197A109B1098093260190932701A0936B
:1001E0002801B0932901892B8A2B8B2B89F46CDF92
:1001F0008091020190910301A0910401B091050149
:100200008093260190932701A0932801B0932901A0
:10021000FF91EF91BF91AF919F918F917F916F91DE
:100220005F914F913F912F910F900BBE0F900FBE9A
:100230000F901F90189560930201709303018093B3
:100240000401909305016093260170932701809328
:1002500028019093290108958BE0809381008DE718
:1002600090E0909389008093880082E080936F00F3
:1002700010928500109284008091020190910301F8
:10028000A0910401B091050180932601909327016C
:10029000A0932801B09329018FB780688FBF08957C
:1002A000EAE7F0E08081806E80830895883060F016
:1002B000ECE7F0E0808180838FE000008150E9F777
:1002C0008FE080931C01089580937C00F5CF439AC2
:1002D00041981092230141E050E042989A01009029
:1002E000230102C0220F331F0A94E2F7282311F0E2
:1002F000409A01C04098429A909123019F5F909349
:100300002301983050F3419A0895CF93DF93809161
:100310002C01823009F477C030F4882359F0813001
:1003200009F46EC079C0833009F470C0843009F4D8
:1003300070C072C080E0BADFC8E7D0E088819981E0
:10034000909322018093210181E0B0DF28813981DF
:100350003093200120931F0180912101909122016F
:10036000AC01455F51404336510548F4A901455F52
:1003700051404336510518F410922C01CEC08E35F1
:1003800041E0940768F4A901525047306FEF5607D7
:10039000C4F04A3F5105ACF481E080932C014AC07F
:1003A000833543E0940768F0A901525047306FEF5E
:1003B00056073CF04A3F510524F482E080932C011B
:1003C00045C0233543E0340760F0925087306FEF2B
:1003D000960714F18A3F9105FCF483E080932C0189
:1003E00041C02E353140C0F4925087306FEF9607F0
:1003F0009CF08A3F910584F484E080932C015FC0D7
:1004000010922C018AC010922C0187C010922C01EE
:1004100084C010922C0181C080912C018230B1F0F7
:1004200018F4813039F079C08330E1F0843009F478
:1004300046C073C080910101803821F481E080932F
:1004400001016BC0880F8093010167C08091010199
:10045000813021F480E8809301015FC0869580930C
:1004600001015BC080911E01882329F08150809397
:100470001E01811104C08EE1809300014EC08130C5
:1004800021F48DE18093000148C0823021F48BE19A
:100490008093000142C0833021F487E18093000102
:1004A0003CC0843021F48FE08093000136C0853059
:1004B000A1F58EE18093000110921E012EC0809163
:1004C0001E01853018F48F5F80931E0180911E01FC
:1004D000811104C08EE1809300011FC0813021F49E
:1004E0008DE18093000119C0823021F48BE180936B
:1004F000000113C0833021F487E1809300010DC017
:10050000843021F48FE08093000107C0853029F406
:100510008EE18093000110921E01809100018BB941
:1005200080910101D4DEDF91CF9108955F926F92A7
:100530007F928F929F92AF92BF92CF92DF92EF9273
:10054000FF920F931F93CF93DF9380912D01811121
:100550004BC0EEE2F1E081E0828383838583868372
:100560008787828B858B858F83A384A780AB83AF9E
:1005700084AF85AF6F01E12CF12CAA24AA94B12C91
:10058000612C712C88248394912C21C0F8018191D5
:100590008F01813071F4C4010C2E02C0880F991FA5
:1005A0000A94E2F78629682E952D9A21A92E9BB9E7
:1005B0008EDE2196C830D10549F72FEFE21AF20AF4
:1005C0008EE0C80ED11CE5E0EE16F10469F0C4011E
:1005D0000E2C02C0880F991F0A94E2F7582E5094EF
:1005E0008601C0E0D0E0D2CFDF91CF911F910F9173
:1005F000FF90EF90DF90CF90BF90AF909F908F9043
:100600007F906F905F900895CF93DF9300D000D0DC
:10061000CDB7DEB711B88FEF82B984B915B887B9F5
:1006200018B88AB91BB83CDE6AEF70E080E090E051
:1006300002DE12DEA1E1B1E0BA83A983E6E0F1E0D7
:10064000FC83EB831C9244E050E060E070E0119684
:100650004D935D936D937C93149715964D935D9395
:100660006D937C93189785E891E01A969C938E93EE
:100670001997108281E090E0A0E0B0E0818392833E
:10068000A383B48385839683A783B08786E992E0AA
:10069000928781877E0185E0E80EF11CDE011196CC
:1006A0006D01F601019111916F01D80115964D91DF
:1006B0005D916D917C91189711968D919D910D9002
:1006C000BC91A02D481759076A077B0781F4F801F0
:1006D00080810184F285E02D082E000C990B09958C
:1006E000D8018C93F8011582168217821086F801C2
:1006F00085819681A781B0850196A11DB11D858355
:100700009683A783B087CE14DF0459F68091240125
:0E0710008823E1F310922401C1CFF894FFCFAB
:06071E001E800100000036
:00000001FF
