S01F00006C65645F7631305F34646972656374696F6E732B6C65642E7372656373
S113000045C0000060C000005EC000005CC000008D
S11300105AC0000058C0000056C0000054C0000080
S113002052C0000050C000004EC000004CC0000090
S11300304AC000007EC0000046C0000044C000006A
S113004042C0000040C000003EC000003CC00000B0
S11300503AC0000038C0000036C0000034C00000C0
S113006032C0000030C000002EC000002CC00000D0
S11300702AC0000028C0000026C0000024C00000E0
S113008022C0000020C000001EC0000011241FBEBA
S1130090CFEFD0E4DEBFCDBF11E0A0E0B1E0ECE6ED
S11300A0F4E000E00BBF02C007900D92A630B10748
S11300B0D9F721E0A6E0B1E001C01D92A331B20757
S11300C0E1F7BAD1D1C19CCF6093020170930301CF
S11300D0809304019093050160930D0170930E01C8
S11300E080930F019093100108958BE08093810019
S11300F08DE790E0909389008093880082E080935C
S11301006F001092850010928400809102019091FA
S11301100301A0910401B091050180930D01909316
S11301200E01A0930F01B09310018FB780688FBFA9
S113013008951F920F920FB60F9211248F939F93DD
S1130140AF93BF9380910D0190910E01A0910F0187
S1130150B09110010197A109B10980930D01909309
S11301600E01A0930F01B0931001892B8A2B8B2BC6
S113017099F481E08093110180910201909103012F
S1130180A0910401B091050180930D0190930E019B
S1130190A0930F01B0931001BF91AF919F918F91E4
S11301A00F900FBE0F901F901895EAE7F0E0808142
S11301B0806E80830895883060F0ECE7F0E0808101
S11301C080838FE000008150E9F78FE0809306017F
S11301D0089580937C00F5CF439A419810920C01C6
S11301E041E050E042989A0100900C0102C0220FB5
S11301F0331F0A94E2F7282311F0409A01C0409873
S1130200429A90910C019F5F90930C01983050F3A7
S1130210419A0895CF93DF9380911201823009F4BB
S113022077C030F4882359F0813009F46EC079C066
S1130230833009F470C0843009F470C072C080E067
S1130240BADFC8E7D0E08881998190930B0180934D
S11302500A0181E0B0DF28813981309309012093BC
S1130260080180910A0190910B01AC01455F514056
S11302704336510548F4A901455F514043365105C1
S113028018F410921201CEC08E3541E0940768F440
S1130290A901525047306FEF5607C4F04A3F510549
S11302A0ACF481E0809312014AC0833543E09407A3
S11302B068F0A901525047306FEF56073CF04A3FAF
S11302C0510524F482E08093120145C0233543E0B4
S11302D0340760F0925087306FEF960714F18A3F2D
S11302E09105FCF483E08093120141C02E35314026
S11302F0C0F4925087306FEF96079CF08A3F9105C7
S113030084F484E0809312015FC0109212018AC0C9
S11303101092120187C01092120184C0109212012F
S113032081C0809112018230B1F018F4813039F02B
S113033079C08330E1F0843009F446C073C0809101
S11303400101803821F481E0809301016BC0880FA2
S11303508093010167C080910101813021F480E81C
S1130360809301015FC08695809301015BC08091F9
S11303700701882329F0815080930701811104C06B
S11303808EE1809300014EC0813021F48DE1809391
S1130390000148C0823021F48BE18093000142C007
S11303A0833021F487E1809300013CC0843021F440
S11303B08FE08093000136C08530A1F58EE18093F3
S11303C00001109207012EC080910701853018F4B6
S11303D08F5F8093070180910701811104C08EE132
S11303E0809300011FC0813021F48DE180930001CE
S11303F019C0823021F48BE18093000113C0833053
S113040021F487E1809300010DC0843021F48FE052
S11304108093000107C0853029F48EE180930001A8
S11304201092070180B1809100018BB98091010184
S1130430D3DEDF91CF91089511B88FEF82B984B9DB
S113044015B887B918B88AB91BB8AFDE64E670E08E
S113045080E090E039DE49DE809111018823E1F3E8
S10F046010921101D7DEF8CFF894FFCF02
S109046C1E8001000000E7
S9030000FC
