:1000000045C0000060C000005EC000005CC0000091
:100010005AC0000058C0000056C0000054C0000084
:1000200052C0000050C000004EC000004CC0000094
:100030004AC000007EC0000046C0000044C000006E
:1000400042C0000040C000003EC000003CC00000B4
:100050003AC0000038C0000036C0000034C00000C4
:1000600032C0000030C000002EC000002CC00000D4
:100070002AC0000028C0000026C0000024C00000E4
:1000800022C0000020C000001EC0000011241FBEBE
:10009000CFEFD0E4DEBFCDBF11E0A0E0B1E0E2E4FD
:1000A000F6E000E00BBF02C007900D92A43AB10742
:1000B000D9F721E0A4EAB1E001C01D92AA3CB20741
:1000C000E1F7D8D1BCC29CCF6093090170930A01BB
:1000D00080930B0190930C016093BE017093BF015C
:1000E0008093C0019093C10108958BE080938100BB
:1000F0008DE790E0909389008093880082E0809360
:100100006F001092850010928400809109019091F7
:100110000A01A0910B01B0910C018093BE01909354
:10012000BF01A093C001B093C1018FB780688FBF9A
:1001300008951F920F920FB60F9211248F939F93E1
:10014000AF93BF938091BE019091BF01A091C00178
:10015000B091C1010197A109B1098093BE019093AB
:10016000BF01A093C001B093C101892B8A2B8B2BB7
:1001700099F481E08093C2018091090190910A0174
:10018000A0910B01B0910C018093BE019093BF012F
:10019000A093C001B093C101BF91AF919F918F9186
:1001A0000F900FBE0F901F901895181619065CF04F
:1001B0000895000021503109E1F74F5F5F4F841728
:1001C000950719F4089540E050E027E033E0F1CFBF
:1001D0005E9888B95F9A00005F9882E090E0E5CF72
:1001E000089581E0F5CF0895813118F48158F0CF5A
:1001F00008958155EDCF0895CF93DF93EC010097DB
:1002000079F1019719F0C0E0D0E02CC08091C701CE
:1002100082FF07C09091C301923118F090519093E2
:10022000C30183FF07C09091C301913118F4905F1F
:100230009093C30184FF16C08091C401811112C044
:1002400081E08093C4018091C501813019F410923E
:10025000C50108C08091C80180958093C80102C083
:10026000C1E0D0E08091C301BFDFCE01DF91CF912B
:10027000089584E690E099DF88E3AADF86E0A8DFAE
:100280008FE0A6DF81E0A4DF8AE090E08ECF0895C2
:100290005E9A88B95F9A00005F9881E090E085CF10
:1002A00008950F931F93CF93DF93182FEB0199DFDE
:1002B0008881882351F001E0010F812F95DF89911A
:1002C000E7DF102F88818111F6CFDF91CF911F9149
:1002D0000F910895CF93DF93EC01009719F00197E8
:1002E00051F0C2C091E080E02091C501213009F4B5
:1002F00090E0C92FD82FC130D10509F0B7C01092B6
:10030000C4018091C8018111B1C081E090E0909357
:1003100003018093020168DF209102013091030103
:10032000E0910701F09108018091BC019091BD011D
:10033000E80FF91FE20FF31F319780818332C9F470
:100340004091C30150E02417350799F44ADF109219
:10035000BB011092BA011092BD011092BC016DE078
:1003600071E081E09EDF81E08093C501C0E0D0E0D4
:100370000DC08EDF80910201909103010196909350
:10038000030180930201813191052CF22091BC017F
:100390003091BD018091040190E04097821793074E
:1003A0002CF41092BD011092BC0106C02F5F3F4F8C
:1003B0003093BD012093BC0181E190E09093010155
:1003C0008093000111DF2091000130910101E09143
:1003D0000501F09106018091BA019091BB01E80FEF
:1003E000F91FE20FF31F719780818332C9F44091A6
:1003F000C30150E02417350799F4F3DE1092BB01D6
:100400001092BA011092BD011092BC016DE071E032
:1004100081E047DF81E08093C501C0E0D0E00DC0FE
:1004200037DF8091000190910101019690930101C5
:1004300080930001813291052CF22091BA01309114
:10044000BB018091040190E04097821793072CF440
:100450001092BB011092BA0109C02F5F3F4F309339
:10046000BB012093BA0102C0C0E0D0E0CE01DF9111
:10047000CF910895CF93DF9300D000D0CDB7DEB7F2
:1004800083E084B98CEF85B98FEF87B918B88AB942
:100490001BB81092C5011092C80182E08093C3017D
:1004A0000F2EFCE2EF2EF02DFF24F39400E010E07D
:1004B0005AE040E030E020E004C0E62EF72E082F9E
:1004C000192F652F742F832F922F2E2D3F2D402F04
:1004D000512F93D05E2D4F2D302F212F6115710597
:1004E0008105910551F76AE070E080E090E02E2DE3
:1004F0003F2D402F512F81D049015A016CE271E00C
:1005000080E090E02E2D3F2D402F512F76D0AFEA86
:10051000B1E0BA83A983E4EAF1E0FC83EB831C92A7
:1005200011968D929D92AD92BC92149715968D92D4
:100530009D92AD92BC9218978CEF90E01A969C9386
:100540008E931997108221833283438354832583AA
:100550003683478350878AE691E0928781876E2DA4
:100560007F2D802F912FB0DDC0DD83DE7E0185E001
:10057000E80EF11C83B180958093C701DE011196CE
:100580006D01F601019111916F01D80115964D9100
:100590005D916D917C91189711968D919D910D9023
:1005A000BC91A02D481759076A077B0781F4F80111
:1005B00080810184F285E02D082E000C990B0995AD
:1005C000D8018C93F8011582168217821086F801E3
:1005D00085819681A781B0850196A11DB11D858376
:1005E0009683A783B087CE14DF0459F68091C201A9
:1005F0008823E1F31092C201BDCFA1E21A2EAA1BFB
:10060000BB1BFD010DC0AA1FBB1FEE1FFF1FA217C2
:10061000B307E407F50720F0A21BB30BE40BF50BBF
:10062000661F771F881F991F1A9469F76095709548
:10063000809590959B01AC01BD01CF010895F89480
:02064000FFCFEA
:10064200110001004418015E010100000047616DC4
:1006520065204F7665722100202020202020202056
:100662002020202020202020202020202020232085
:100672002020202020202020202320202020202075
:100682002020202023202020232020202020202062
:100692002020202020202020202020202000202078
:1006A2002020202020202020202020202020232045
:1006B2002020202020202020202020232020202035
:1006C2002020202020232020202020202320202022
:1006D2002020202320202020202020202020202015
:0406E20020202000B4
:00000001FF
